:100000000C9458000C94A9030C94A9030C94A90314
:100010000C94A9030C94A9030C94A9030C94A903B0
:100020000C948B030C94A9030C94A9030C94A903BE
:100030000C94A9030C94A9030C94F5010C94A90346
:100040000C94A9030C94A9030C94A9030C94A90380
:100050000C94A9030C94A9030C94A9030C94A90370
:100060000C94C3010C94A9030C947F020C945302CA
:100070000C94A9030C9490030C94A9030C94A90369
:100080000C94A9030C94A9030C948A010C94A90361
:10009000600060100007706010602A80602A602C89
:1000A000000780602C603080603060310007820083
:1000B000809101108F7C80608068809301101124F2
:1000C0001FBECFEFCDBFDFE7DEBFE0E9F0E040E0ED
:1000D00017C0B591A59135912591059107FD0CC0EB
:1000E00095918591EF01F92FE82F05900D92A217B8
:1000F000B307D9F7FE0104C01D92A217B307E1F7B9
:10010000EF3AF40731F70E9409030C946603F89460
:02011000FFCF1F
:10011200CF93DF9380E094E0FC011082C0E4D4E04E
:100122001882A0E6B4E020E12C9340EA54E030E2E9
:10013200FA013083FC0114821C8214962C931497CA
:10014200FA011482FC01108A118A128A138A148A13
:10015200158A168A178A188A198A1A8A1B8A1C8A89
:100162001D8A1E8A1F8A50961C92509751961C9285
:10017200519752961C92529753961C9253975496AB
:100182001C92549755961C92559756961C925697C8
:1001920057961C92FA01108A118A128A138A148ABB
:1001A200158A88E0868B178AE0EEF5E011821082CC
:1001B2001582178210861186168283E082838DEA69
:1001C20093E080931C6090931D608EEA93E080938D
:1001D2001A6090931B608FEA93E08093186090936B
:1001E200196080EB93E0809316609093176081EB27
:1001F20093E08093146090931560DF91CF910895FE
:1002020040E068ED80E690E00E94A20341E168EDE3
:1002120081E690E00E94A20340E068ED85E690E06E
:100222000E94A20340E068ED88E790E00E94A203EA
:1002320040E268ED88E690E00E94A20340E068EDAB
:1002420089E690E00E94A20340E468ED80E790E036
:100252000E94A20340E068ED8CE790E00E94A203B6
:1002620040E068ED82E690E00E94A20340E068ED83
:1002720083E690E00E94A20340E068ED84E690E00D
:100282000E94A20340E068ED80E890E00E94A20391
:0C029200E0E6F0E0858181FFFDCF0895DB
:10029E000E94860320913060273071F40024880F6D
:1002AE00991F001C880F991F001C892F902D809379
:1002BE0028609093296009C002C0969587952A956B
:1002CE00E2F7809328609093296090912860809146
:1002DE00296090932F6080932E608FE50E945A03C1
:1002EE0080912F600E945A0380912E600E945A03C3
:1002FE00809130600E945A0381E00E945A0380EA86
:06030E000E945A0308954D
:100314001F920F920FB60F9211242F933F934F9376
:100324005F936F937F938F939F93AF93BF93EF9359
:10033400FF93BB9B05C0E0911C60F0911D60099583
:10034400BE9B05C0E0911660F09117600995BD9BB6
:1003540005C0E0911460F091156009958FEF87BB9B
:10036400FF91EF91BF91AF919F918F917F916F9189
:100374005F914F913F912F910F900FBE0F901F905F
:020384001895CA
:100386001F920F920FB60F9211242F933F934F9304
:100396005F936F937F938F939F93AF93BF93EF93E7
:1003A600FF937D9B05C0E0911A60F0911B60099553
:1003B6007C9B05C0E0911860F091196009958FEF5C
:1003C6008FB9FF91EF91BF91AF919F918F917F91DF
:1003D6006F915F914F913F912F910F900FBE0F90AC
:0403E6001F901895B7
:1003EA001F920F920FB60F9211242F933F934F93A0
:1003FA005F936F937F938F939F93AF93BF93EF9383
:10040A00FF938091060B80FF0AC0E0911E60F09175
:10041A001F60309709F0099581E08093060BFF91E0
:10042A00EF91BF91AF919F918F917F916F915F9162
:10043A004F913F912F910F900FBE0F901F901895DB
:10044A00E0E0F8E086EB92E080879187158280EC05
:10045A00868383E08783138614861686158682EB45
:10046A0093E0809324609093256083EB93E08093DC
:10047A0022609093236084EB93E0809320609093B2
:10048A0021601092266010922760E0912A60F09114
:0C049A002B6080E090E680839183089541
:1004A6001F920F920FB60F9211242F933F934F93E3
:1004B6005F936F937F938F939F93AF93BF93EF93C6
:1004C600FF9382E080930D06E0911260F091136035
:1004D600309709F00995FF91EF91BF91AF919F91E8
:1004E6008F917F916F915F914F913F912F910F90D7
:0804F6000FBE0F901F90189536
:1004FE001F920F920FB60F9211242F933F934F938B
:10050E005F936F937F938F939F93AF93BF93EF936D
:10051E00FF9381E080930D06E0911060F0911160E1
:10052E00309709F00995FF91EF91BF91AF919F918F
:10053E008F917F916F915F914F913F912F910F907E
:08054E000FBE0F901F901895DD
:10055600E0E0F2E0108A118A128A138A8EE4848B14
:10056600158A81E08083118210A610A211A212A220
:1005760013A214A215A216A217A211A612A613A6BA
:1005860014A617A610AA85E081AB12AA13AA14AA6C
:1005960015AA16AA17AA10AE15A616A680E00895E3
:1005A600B69B17C00E949A0380E28093A5048091AF
:1005B60030608F5F883019F08093306002C01092EF
:1005C6003060809130608093010683E10E947A0357
:0A05D600089580E28093A6040895C2
:1005E000E0E0F6E0118281E08283138214821686B5
:1005F0001386148683E1808780E4818715828FEFDC
:1006000093E0848B958B128A138A87E0808380E045
:0206100008954B
:100612000E94300383ED92E00E9495038091306046
:100622008093010683E10E947A030E949E0388233D
:08063200E1F30E944F01F9CF32
:10063A00E0E0FBE080E197E28487958712861386E3
:10064A0086E08183108681E1848381E08583168236
:06065A0011868083089563
:100660000E9489000E94F0020E9401010E94AB02D8
:100670000E941D030E9425020E9471030E944103F3
:020680000895DB
:1006820040E068ED80E191E00E94A203E0E1F1E048
:0A06920012821382789480E008952C
:10069C00CF93C82F0E9480038823E1F3C0930208F4
:0806AC0080E090E0CF91089579
:1006B4000E94A6030E9480038823E1F3E0E0F8E0AF
:0806C4008481806484830895A1
:1006CC00EC010E94B6030E94B503CE010E94B70351
:0606DC00CE010E94AB03F9
:1006E200E0EBF0E085E0848393E89083828380E00E
:0206F200089569
:0C06F400E0E0F6E0808781E08287089556
:0C0700008091040885FB882780F908958B
:0A070C0080911006909111060895E7
:0A0716008F938FEF83B98F91189530
:0A0720008F938FEF8BB98F9118951E
:0A072A0080931E6090931F600895F5
:0807340082E080930A0608959B
:08073C0080910D068170089503
:08074400FC0164BF408308952D
:06074C00809302080895ED
:040752000C94000003
:040756000E94870076
:02075A00089500
:02075C000895FE
:02075E000895FC
:020760000895FA
:020762000895F8
:020764000895F6
:020766000895F4
:020768000895F2
:02076A000895F0
:02076C000895EE
:02076E000895EC
:100770000300000000000000000000004E03000025
:020780002C60EB
:010782000571
:02000004008278
:090000000000000000D00800001F
:00000001FF
